S01100004C61625F342D355F322E737265637E
S113000071C0000086C0000084C0000082C00000EF
S113001080C000007EC000007CC000007AC00000E8
S113002078C0000076C0000074C0000072C00000F8
S113003070C000006EC000006CC000006AC0000008
S113004068C0000066C0000064C0000062C0000018
S113005060C000005EC000005CC000005AC0000028
S113006058C0000056C0000054C0000052C0000038
S113007050C000004EC000004CC000004AC0000048
S113008048C0000046C0000044C0000042C0000058
S113009040C000003EC000003CC000003AC0000068
S11300A038C0000036C0000034C0000032C0000078
S11300B030C000002EC000002CC000002AC0000088
S11300C028C0000026C0000024C0000022C0000098
S11300D020C000001EC000001CC000001AC00000A8
S11300E018C0000011241FBECFEFD1E2DEBFCDBF88
S11300F000E00CBF12E0A0E0B2E0E8E8FEE000E0BF
S11301000BBF02C007900D92A431B107D9F702D0FA
S1130110B9C676CFCF93DF9300D0CDB7DEB741D049
S113012023D28170898303C01FD28170898389811E
S11301308823D1F32AD286958695869581708A8301
S11301408A81882369F3ADD18B836B8186E433D0B4
S113015068E081E47AD26B8184E42DD06B8186E4FB
S11301602AD066E081E471D26B8183E524D068E013
S113017083E56BD280E048D280E146D206D28695F0
S11301808695869581708A8306C0FFD1869586956B
S1130190869581708A838A818130B9F380E034D274
S11301A0BFCFCF93DF93CDB7DEB73ED2B1D100003E
S11301B0DF91CF910895CF93DF93CDB7DEB7AC979E
S11301C00FB6F894DEBF0FBECDBF8BA76CA78BA56F
S11301D0882F90E08634910549F08335910509F420
S11301E0E7C08434910509F472C051C18CA50CD2C6
S11301F080E090E0AAE7B5E489879A87AB87BC875B
S113020020E030E04AE755E469857A858B859C8552
S1130210AED5DC01CB018D879E87AF87B88B20E0FC
S113022030E040E85FE36D857E858F8598891ED533
S113023088232CF481E090E09A8B898B3BC020E0EA
S11302403FEF4FE757E46D857E858F8598898BD581
S113025018163CF520E030E040E251E469857A85E7
S11302608B859C8584D5DC01CB01BC01CD0102D5F5
S1130270DC01CB019A8B898B0FC080E991E09C8BC8
S11302808B8B8B899C890197F1F79C8B8B8B89894C
S11302909A8901979A8B898B89899A89892B69F71D
S11302A013C06D857E858F859889E4D4DC01CB01EC
S11302B09A8B898B89899A899E8B8D8B8D899E894E
S11302C00197F1F79E8B8D8B80E09ED1E0C084E096
S11302D09BD180E090E0AAE7B5E489839A83AB835D
S11302E0BC8320E030E04AE755E469817A818B8160
S11302F09C813DD5DC01CB018F8B988FA98FBA8F60
S113030020E030E040E85FE36F89788D898D9A8D35
S1130310ADD488232CF481E090E09C8F8B8F3BC07C
S113032020E03FEF4FE757E46F89788D898D9A8DF0
S11303301AD518163CF520E030E040E251E469811A
S11303407A818B819C8113D5DC01CB01BC01CD0169
S113035091D4DC01CB019C8F8B8F0FC080E991E09D
S11303609E8F8D8F8D8D9E8D0197F1F79E8F8D8F32
S11303708B8D9C8D01979C8F8B8F8B8D9C8D892B66
S113038069F713C06F89788D898D9A8D73D4DC01D8
S1130390CB019C8F8B8F8B8D9C8D98A38F8F8F8D92
S11303A098A10197F1F798A38F8F80E02DD16FC0AA
S11303B084E02AD180E090E0AAE7B4E48D839E83B0
S11303C0AF83B88720E030E04AE755E46D817E8151
S11303D08F819885CCD4DC01CB0189A39AA3ABA3EC
S11303E0BCA320E030E040E85FE369A17AA18BA1DF
S11303F09CA13CD488232CF481E090E09EA38DA39F
S11304003BC020E03FEF4FE757E469A17AA18BA1FD
S11304109CA1A9D418163CF520E030E040E251E458
S11304206D817E818F819885A2D4DC01CB01BC01D2
S1130430CD0120D4DC01CB019EA38DA30FC080E9A4
S113044091E098A78FA38FA198A50197F1F798A79A
S11304508FA38DA19EA101979EA38DA38DA19EA183
S1130460892B69F713C069A17AA18BA19CA102D43D
S1130470DC01CB019EA38DA38DA19EA19AA789A780
S113048089A59AA50197F1F79AA789A7000000000A
S1130490AC960FB6F894DEBF0FBECDBFDF91CF91FF
S11304A00895CF93DF931F92CDB7DEB76ED08770D8
S11304B089838981882F90E08230910539F08430D6
S11304C0910531F0019731F481E01EC083E01CC036
S11304D082E01AC05AD0877089830CC056D08770C6
S11304E089838981813079F08981843061F08981BF
S11304F0823049F08981813089F78981843071F7AC
S11305008981823059F789810F90DF91CF910895C5
S1130510CF93DF93CDB7DEB784E290E0FC01108285
S113052085E290E02FEFFC0120838DE290E0FC0156
S113053010828EE290E02FEFFC01208383E390E0B1
S1130540FC01108284E390E02FEFFC01208381E220
S113055090E02FEFFC01208382E290E0FC01108206
S11305600000DF91CF910895CF93DF931F92CDB711
S1130570DEB783E290E0FC0180818F7080958983EF
S113058089810F90DF91CF910895CF93DF931F92CC
S1130590CDB7DEB78CE290E0FC018081869586952C
S11305A08695817089838981880F898382E390E0AD
S11305B0FC018081829586958770982F917089813E
S11305C0892B89838981880F89838CE290E0FC01DF
S11305D08081829586958770982F91708981892B67
S11305E089838981880F89838CE290E0FC01808172
S11305F082958F70982F91708981892B8983898145
S11306000F90DF91CF910895CF93DF931F92CDB7D1
S1130610DEB7898382E290E02981FC012083000017
S11306200F90DF91CF910895CF93DF93CDB7DEB7CD
S113063087E290E02FEFFC01208388E290E0FC0148
S113064010820000DF91CF9108950F931F93CF93F1
S1130650DF93CDB7DEB7CE54D1090FB6F894DEBF21
S11306600FBECDBF9E01235B3F4FF9018083CE01B6
S1130670825B9F4FFC016083CE01835B9F4FFC0133
S11306808081882F90E08134910529F0833591058C
S113069009F4F1C1DEC2CE01825B9F4FFC0180816F
S11306A086958695882F90E09A83898325C11C823C
S11306B01B8288C01E821D827BC088E290E02D814F
S11306C03E812C5F3D4FF9012081FC01208380E0B5
S11306D090E0A0ECB0E489A39AA3ABA3BCA320E070
S11306E030E04AE755E469A17AA18BA19CA13FD3EC
S11306F0DC01CB018DA39EA3AFA3B8A720E030E01B
S113070040E85FE36DA17EA18FA198A5AFD28823B5
S11307102CF481E090E09AA789A73BC020E03FEF4A
S11307204FE757E46DA17EA18FA198A51CD318169D
S11307303CF520E030E040E251E469A17AA18BA1CC
S11307409CA115D3DC01CB01BC01CD0193D2DC010A
S1130750CB019AA789A70FC080E991E09CA78BA73A
S11307608BA59CA50197F1F79CA78BA789A59AA5B2
S113077001979AA789A789A59AA5892B69F713C018
S11307806DA17EA18FA198A575D2DC01CB019AA79A
S113079089A789A59AA59EA78DA78DA59EA5019732
S11307A0F1F79EA78DA78D819E8101969E838D83EF
S11307B08D819E81089708F480CF8B819C8101965E
S11307C09C838B838B819C818A9708F473CF1886D2
S11307D01F8288C01A8619867BC088E290E029852A
S11307E03A85245F3D4FF9012081FC01208380E09C
S11307F090E0A0ECB0E48D8B9E8BAF8BB88F20E0A3
S113080030E04AE755E46D897E898F89988DAFD2AF
S1130810DC01CB018FA798ABA9ABBAAB20E030E0E9
S113082040E85FE36FA578A989A99AA91FD2882314
S11308302CF481E090E09CAB8BAB3BC020E03FEF1D
S11308404FE757E46FA578A989A99AA98CD21816FD
S11308503CF520E030E040E251E46D897E898F89E7
S1130860988D85D2DC01CB01BC01CD0103D2DC0122
S1130870CB019CAB8BAB0FC080E991E09EAB8DAB01
S11308808DA99EA90197F1F79EAB8DAB8BA99CA96D
S113089001979CAB8BAB8BA99CA9892B69F713C0DF
S11308A06FA578A989A99AA9E5D1DC01CB019CABF4
S11308B08BAB8BA99CA998AF8FAB8FA998AD0197EF
S11308C0F1F798AF8FAB89859A8501969A878987C6
S11308D089859A85089708F480CF8F819885019639
S11308E098878F838F8198858A9708F473CF89813D
S11308F09A8101979A83898389819A81892B09F046
S1130900D6CECE01825B9F4FFC0120818BEA289FCB
S1130910812D1124982F9695892F880F890F922F56
S1130920981B992309F094C11C861B869EC01E86C1
S11309301D8691C088E290E02D853E852C5F3D4F59
S1130940F9012081FC01208380E090E0A0ECB0E478
S1130950898F9A8FAB8FBC8F20E030E04AE755E453
S1130960698D7A8D8B8D9C8D02D2DC01CB0189AF90
S11309709AAFABAFBCAF20E030E040E85FE369ADD5
S11309807AAD8BAD9CAD72D188232CF481E090E0DC
S11309909EAF8DAF45C020E03FEF4FE757E469AD10
S11309A07AAD8BAD9CADDFD118168CF520E030E02C
S11309B040E251E4698D7A8D8B8D9C8DD8D1DC0118
S11309C0CB01BC01CD0156D1DC01CB019EAF8DAF73
S11309D019C020E931E0CE01CF96FC013183208398
S11309E0CE01CF96FC01808191810197F1F79E01A0
S11309F0215C3F4FF901918380838DAD9EAD0197BA
S1130A009EAF8DAF8DAD9EAD892B19F71FC069AD1B
S1130A107AAD8BAD9CAD2ED1DC01CB019EAF8DAFF9
S1130A20CE018F5B9F4F2DAD3EADFC013183208302
S1130A30CE018F5B9F4FFC01808191810197F1F77B
S1130A409E012F5B3F4FF901918380838D859E85A5
S1130A5001969E878D878D859E85089708F46ACFB9
S1130A608B859C8501969C878B878B859C858A9733
S1130A7008F45DCFEDC0CE01825B9F4FFC01808105
S1130A80882F90E0988B8F87DCC01A8A198ACEC091
S1130A901C8A1B8AC1C088E290E02B893C892050C3
S1130AA03E4FF9012081FC01208380E090E0A0E426
S1130AB0B0E48D8F9E8FAF8FB8A38E010D5B1F4F57
S1130AC020E030E04AE755E46D8D7E8D8F8D98A14E
S1130AD04ED1DC01CB01F80180839183A283B383DF
S1130AE0CE018D5B9F4F20E030E040E85FE3FC01E6
S1130AF06081718182819381B9D088234CF4CE01C5
S1130B00895B9F4F21E030E0FC013183208365C085
S1130B10CE018D5B9F4F20E03FEF4FE757E4FC0190
S1130B2060817181828193811ED118160CF044C0BA
S1130B3020E030E040E251E46D8D7E8D8F8D98A1F0
S1130B4016D1DC01CB018E01095B1F4FBC01CD0125
S1130B5091D0DC01CB01F8019183808324C0CE01C4
S1130B60875B9F4F20E931E0FC0131832083CE0174
S1130B70875B9F4FFC01808191810197F1F79E0172
S1130B80275B3F4FF90191838083CE01895B9F4F9F
S1130B909E01295B3F4FF9012081318121503109A8
S1130BA0FC0131832083CE01895B9F4FFC0180814E
S1130BB09181892BA1F62BC08E01095B1F4FCE01B9
S1130BC08D5B9F4FFC01608171818281938152D042
S1130BD0DC01CB01F80191838083CE01855B9F4FBB
S1130BE09E01295B3F4FF90120813181FC01318352
S1130BF02083CE01855B9F4FFC0180819181019709
S1130C00F1F79E01255B3F4FF901918380838B8926
S1130C109C8901969C8B8B8B8B899C89049708F407
S1130C203ACF89899A8901969A8B898B89899A897D
S1130C308435910508F42CCF8F8598890197988B7A
S1130C408F878F859889181619060CF41ECF01C05A
S1130C5000000000C25BDF4F0FB6F894DEBF0FBE8A
S1130C60CDBFDF91CF911F910F9108952FD008F43C
S1130C7081E0089557D088F09F5790F0B92F9927B5
S1130C80B751A0F0D1F0660F771F881F991F1AF093
S1130C90BA95C9F712C0B13081F05ED0B1E00895C1
S1130CA05BC0672F782F8827B85F39F0B93FCCF342
S1130CB0869577956795B395D9F73EF49095809589
S1130CC0709561957F4F8F4F9F4F0895990F00083E
S1130CD0550FAA0BE0E8FEEF16161706E807F9070A
S1130CE0C0F012161306E407F50798F0621B730BA5
S1130CF0840B950B39F40A2661F0232B242B252B26
S1130D0021F408950A2609F4A140A6958FEF811DC8
S1130D10811D089557FD9058440F551F59F05F3FAA
S1130D2071F04795880F97FB991F61F09F3F79F009
S1130D3087950895121613061406551FF2CF46958B
S1130D40F1DF08C0161617061806991FF1CF86950D
S1130D507105610508940895E894BB2766277727F1
S1130D60CB0197F90895B2DF08F48FEF08950BD003
S1130D7078C069D028F06ED018F0952309F05AC0D5
S1130D805FC01124EACFC6DFA0F3959FD1F3950F7E
S1130D9050E0551F629FF001729FBB27F00DB11DFB
S1130DA0639FAA27F00DB11DAA1F649F6627B00D8B
S1130DB0A11D661F829F2227B00DA11D621F739F74
S1130DC0B00DA11D621F839FA00D611D221F749F82
S1130DD03327A00D611D231F849F600D211D822FC9
S1130DE0762F6A2F11249F5750408AF0E1F0882310
S1130DF04AF0EE0FFF1FBB1F661F771F881F91501D
S1130E005040A9F79E3F510570F014C0A6CF5F3F34
S1130E10ECF3983EDCF3869577956795B795F7954F
S1130E20E7959F5FC1F7FE2B880F911D96958795D7
S1130E3097F9089597F99F6780E870E060E0089556
S1130E409FEF80EC089500240A94161617061806DE
S1130E500906089500240A941216130614060506BA
S1130E600895092E0394000C11F4882352F0BB0F4B
S1130E7040F4BF2B11F460FF04C06F5F7F4F8F4FAE
S10B0E809F4F0895F894FFCF81
S1130E88010204080901030206040C08080C0406FC
S1070E980203010943
S9030000FC
