S00F00004C61625F365F372E73726563DB
S113000071C0000079C0000077C0000075C0000016
S113001073C0000071C000006FC000006DC000001C
S11300206BC0000069C0000067C0000065C000002C
S113003063C0000061C000005FC000005DC000003C
S11300405BC0000059C0000057C0000055C000004C
S113005053C0000051C000004FC000004DC000005C
S11300604BC0000049C0000047C0000045C000006C
S113007043C0000041C000003FC000003DC000007C
S11300803BC0000039C0000037C0000035C000008C
S113009033C0000031C000002FC000002DC000009C
S11300A02BC0000029C0000027C0000025C00000AC
S11300B023C0000021C000001FC000001DC00000BC
S11300C01BC0000019C0000017C0000015C00000CC
S11300D013C0000011C000000FC000000DC00000DC
S11300E00BC0000011241FBECFEFD1E2DEBFCDBF95
S11300F000E00CBF61D163C283CFECE7F0E080E4A1
S1130100808380818083EAE7F0E087E080838081D8
S1130110806880830895ECE7F0E090819F7D908370
S113012090819F7D90839081907E90839081892B94
S11301308083EAE7F0E080818064808380917A00A4
S113014084FFFCCF309178008091790090E0982F63
S11301508827EAE7F0E0208120612083832B08953B
S113016016BC14BC15BC17BC0895109285001092DF
S11301708400E8E8F0E01182108282E0809380003D
S11301808AE0809381001182108208951092950074
S113019010929400109290008DE080939100109240
S11301A09900109298000895AC0120E030E00CC052
S11301B09AEF97BD93E095BDA99BFECF15BC95B36F
S11301C0926095BB2F5F3F4F2417350788F308953E
S11301D0443411F1463421F0433409F047C034C0AB
S11301E0E0E9F0E02081206420839B01AC01012E32
S11301F01AE0220F331F441F551F1A95D1F7102DF3
S113020060E074E284EF90E0A9D121503109309389
S11302109900209398000895E0E8F0E02081206898
S11302202083052E59E0660F771F881F991F5A9562
S1130230D1F7502D24E630E040E050E08FD13093E8
S11302408900209388000895E0E8F0E080818F77AA
S113025080831092890010928800E0E9F0E08081A8
S11302608F7B808310929900109298000895AF922A
S1130270BF92CF92DF92EF92FF920F931F93CF938F
S1130280DF93C62F5A01D22F082F10E0B801762F22
S11302906627770F072E000C880B990B0F2EF4E6B8
S11302A0CF2ED12CE12CF12CF02DA701960156D1A3
S11302B030938900209388008C2F90E0801B910B51
S11302C00D2F10E0B80137D1CB01770FAA0BBB0B70
S11302D0BC01CD01052E59E0660F771F881F991FB9
S11302E05A95D1F7502DA701960138D169017A01A9
S11302F0C501B8010CD18B01C0E014C0C80154DFA2
S113030080918800909189008130924050F4E8E80F
S1130310F0E080819181808191818C0D9D1D91837C
S11303208083CF5FCD1750F3DF91CF911F910F9151
S1130330FF90EF90DF90CF90BF90AF9008958235FB
S113034019F0833579F014C0E0E8F0E0808180682A
S113035080838AE08093810028E040E45FE16AE5DD
S113036086CF0895E0E8F0E080818F778083089558
S1130370E0E8F0E080818F7780830895A1D0F0DEFB
S1130380F4DE04DFBADE8FEF81B912B880E284B9FB
S11303908FED85B988E08DB987EF8EB9089582B164
S11303A0816082B984EF91E0FFDE82B18E7F82B9F1
S11303B084EF91E0F9CE0895E1DF8DD080FF07C08E
S11303C043E460E070E0CB0103DF82E5B8DF83D073
S11303D081FF02C083E5B3DF7ED082FF06C046E41E
S11303E061E070E080E090E0F3DE75D083FF06C04A
S11303F046E46AE070E080E090E0EADE70D081FBE1
S1130400CC27C0F96CD082FBDD27D0F9C130F9F4D8
S1130410DD23B1F01CC080E07EDE9C01A3E6B0E0E9
S1130420BFD02FEF33E040E050E098D0CA01B901CB
S11304308827992744E4CCDE52D081FBCC27C0F92D
S1130440C13049F343E460E070E0CB01C1DEC11187
S113045035C0D13099F52BC081E05DDEAC0160E0A0
S113046070E0DB01CA01880F991FAA1FBB1F880F08
S1130470991FAA1FBB1F880F991FAA1FBB1F8C019E
S11304809D01040F151F261F371FC901B8012FEF47
S113049033E040E050E062D02F5F3F4FB90180E08D
S11304A090E046E495DE1BD082FBDD27D0F9D13005
S11304B099F243E460E070E0CB018ADE70DF7DCF27
S11304C08FE084B985B91DB88FEF8EB913BA84BB98
S11304D081B912B8089583B18F70809508959CB145
S11304E093FB992790F9892F880F92B395FB99274D
S11304F090F9982B292F220F9CB195FB992790F9FD
S1130500922B990F8CB182958170892B0895AA1B27
S1130510BB1B51E107C0AA1FBB1FA617B70710F0EA
S1130520A61BB70B881F991F5A95A9F7809590951C
S1130530BC01CD01089597FB072E16F4009406D054
S113054077FD08D0E4DF07FC05D03EF49095819553
S11305509F4F0895709561957F4F0895A1E21A2EDB
S1130560AA1BBB1BFD010DC0AA1FBB1FEE1FFF1F53
S1130570A217B307E407F50720F0A21BB30BE40BA3
S1130580F50B661F771F881F991F1A9469F76095EA
S11305907095809590959B01AC01BD01CF010895A4
S11305A0A29FB001B39FC001A39F700D811D1124B0
S11305B0911DB29F700D811D1124911D0895F89411
S10505C0FFCF67
S9030000FC
