:1000000071C0000079C0000077C0000075C000001A
:1000100073C0000071C000006FC000006DC0000020
:100020006BC0000069C0000067C0000065C0000030
:1000300063C0000061C000005FC000005DC0000040
:100040005BC0000059C0000057C0000055C0000050
:1000500053C0000051C000004FC000004DC0000060
:100060004BC0000049C0000047C0000045C0000070
:1000700043C0000041C000003FC000003DC0000080
:100080003BC0000039C0000037C0000035C0000090
:1000900033C0000031C000002FC000002DC00000A0
:1000A0002BC0000029C0000027C0000025C00000B0
:1000B00023C0000021C000001FC000001DC00000C0
:1000C0001BC0000019C0000017C0000015C00000D0
:1000D00013C0000011C000000FC000000DC00000E0
:1000E0000BC0000011241FBECFEFD1E2DEBFCDBF99
:1000F00000E00CBF02D086C283CFCF93DF931F9264
:10010000CDB7DEB709D086E290E0FC018081877030
:10011000898389811AD0F7CFCF93DF93CDB7DEB72C
:1001200081E290E02FEFFC01208382E290E0FC016D
:10013000108287E290E0FC01108288E290E0FC01EE
:1001400010820000DF91CF910895CF93DF93CDB758
:10015000DEB76E970FB6F894DEBF0FBECDBF8E8FA1
:100160008E8D882F90E081709927892B09F434C1F6
:1001700019822EC186E290E0FC01808187708E8F0B
:10018000898188300CF081C080E290E0FC018081A0
:10019000882F90E0AC014F5F5F4F82E290E022E257
:1001A00030E0F9012081322F242F232BFC01208302
:1001B00080E090E0A8ECB2E48E839F83A887B987A3
:1001C00020E030E04AE755E46E817F81888599859B
:1001D0008ED1DC01CB018A879B87AC87BD8720E06D
:1001E00030E040E85FE36A857B858C859D85FED0A5
:1001F00088232CF481E090E09F878E873BC020E02D
:100200003FEF4FE757E46A857B858C859D856BD1F1
:1002100018163CF520E030E040E251E46E817F8129
:100220008885998564D1DC01CB01BC01CD01E2D088
:10023000DC01CB019F878E870FC080E991E0998B0D
:10024000888B888999890197F1F7998B888B8E859E
:100250009F8501979F878E878E859F85892B69F75C
:1002600092C06A857B858C859D85C4D0DC01CB01DD
:100270009F878E878E859F859B8B8A8B8A899B899A
:100280000197F1F79B8B8A8B7EC080E290E0FC01A6
:1002900080818695482F50E082E290E022E230E0B3
:1002A000F9012081322F242F2323FC01208380E0B9
:1002B00090E0A8ECB2E48A839B83AC83BD8320E00A
:1002C00030E04AE755E46A817B818C819D810FD1C2
:1002D000DC01CB018C8B9D8BAE8BBF8B20E030E0A3
:1002E00040E85FE36C897D898E899F897FD0882370
:1002F0002CF481E090E0998F888F3BC020E03FEFA5
:100300004FE757E46C897D898E899F89ECD0181658
:100310003CF520E030E040E251E46A817B818C8151
:100320009D81E5D0DC01CB01BC01CD0163D0DC01B6
:10033000CB01998F888F0FC080E991E09B8F8A8FC6
:100340008A8D9B8D0197F1F79B8F8A8F888D998D70
:100350000197998F888F888D998D892B69F713C0A4
:100360006C897D898E899F8945D0DC01CB01998F6D
:10037000888F888D998D9D8F8C8F8C8D9D8D019709
:10038000F1F79D8F8C8F8E8D882F90E0827099274A
:10039000892B71F006C086E290E0FC0180818770B5
:1003A0008E8F8E8D882F90E082709927892B99F7F8
:1003B0008E8D882F90E084709927892B31F082E20E
:1003C00090E0FC011082000007C089818F5F898363
:1003D000898180310CF4CECE00006E960FB6F89471
:1003E000DEBF0FBECDBFDF91CF9108952FD008F4AF
:1003F00081E0089557D088F09F5790F0B92F992742
:10040000B751A0F0D1F0660F771F881F991F1AF01F
:10041000BA95C9F712C0B13081F05ED0B1E008954D
:100420005BC0672F782F8827B85F39F0B93FCCF3CE
:10043000869577956795B395D9F73EF49095809515
:10044000709561957F4F8F4F9F4F0895990F0008CA
:10045000550FAA0BE0E8FEEF16161706E807F90796
:10046000C0F012161306E407F50798F0621B730B31
:10047000840B950B39F40A2661F0232B242B252BB2
:1004800021F408950A2609F4A140A6958FEF811D55
:10049000811D089557FD9058440F551F59F05F3F37
:1004A00071F04795880F97FB991F61F09F3F79F096
:1004B00087950895121613061406551FF2CF469518
:1004C000F1DF08C0161617061806991FF1CF86959A
:1004D0007105610508940895E894BB27662777277E
:1004E000CB0197F90895B2DF08F48FEF08950BD090
:1004F00078C069D028F06ED018F0952309F05AC062
:100500005FC01124EACFC6DFA0F3959FD1F3950F0A
:1005100050E0551F629FF001729FBB27F00DB11D87
:10052000639FAA27F00DB11DAA1F649F6627B00D17
:10053000A11D661F829F2227B00DA11D621F739F00
:10054000B00DA11D621F839FA00D611D221F749F0E
:100550003327A00D611D231F849F600D211D822F55
:10056000762F6A2F11249F5750408AF0E1F088239C
:100570004AF0EE0FFF1FBB1F661F771F881F9150A9
:100580005040A9F79E3F510570F014C0A6CF5F3FC1
:10059000ECF3983EDCF3869577956795B795F795DC
:1005A000E7959F5FC1F7FE2B880F911D9695879564
:1005B00097F9089597F99F6780E870E060E00895E3
:1005C0009FEF80EC089500240A941616170618066B
:1005D0000906089500240A94121613061406050647
:1005E0000895092E0394000C11F4882352F0BB0FD8
:1005F00040F4BF2B11F460FF04C06F5F7F4F8F4F3B
:080600009F4F0895F894FFCF0D
:00000001FF
